{
  "address": "0xB4c3A5EeDC28aE5397C884885F3e0002E193aBaA",
  "abi": [
    {
      "inputs": [
        {
          "internalType": "address",
          "name": "_user",
          "type": "address"
        }
      ],
      "stateMutability": "nonpayable",
      "type": "constructor"
    },
    {
      "inputs": [
        {
          "internalType": "uint256",
          "name": "_id",
          "type": "uint256"
        },
        {
          "internalType": "string",
          "name": "_title",
          "type": "string"
        },
        {
          "internalType": "string",
          "name": "_author",
          "type": "string"
        }
      ],
      "name": "addBook",
      "outputs": [],
      "stateMutability": "nonpayable",
      "type": "function"
    },
    {
      "inputs": [
        {
          "internalType": "uint256",
          "name": "_id",
          "type": "uint256"
        },
        {
          "internalType": "string",
          "name": "_title",
          "type": "string"
        },
        {
          "internalType": "string",
          "name": "_author",
          "type": "string"
        }
      ],
      "name": "addMyBook",
      "outputs": [],
      "stateMutability": "nonpayable",
      "type": "function"
    },
    {
      "inputs": [
        {
          "internalType": "uint256",
          "name": "",
          "type": "uint256"
        }
      ],
      "name": "books",
      "outputs": [
        {
          "internalType": "string",
          "name": "title",
          "type": "string"
        },
        {
          "internalType": "string",
          "name": "author",
          "type": "string"
        }
      ],
      "stateMutability": "view",
      "type": "function"
    },
    {
      "inputs": [],
      "name": "getUser",
      "outputs": [
        {
          "internalType": "address",
          "name": "",
          "type": "address"
        }
      ],
      "stateMutability": "view",
      "type": "function"
    },
    {
      "inputs": [
        {
          "internalType": "address",
          "name": "",
          "type": "address"
        },
        {
          "internalType": "uint256",
          "name": "",
          "type": "uint256"
        }
      ],
      "name": "myBooks",
      "outputs": [
        {
          "internalType": "string",
          "name": "title",
          "type": "string"
        },
        {
          "internalType": "string",
          "name": "author",
          "type": "string"
        }
      ],
      "stateMutability": "view",
      "type": "function"
    }
  ],
  "transactionHash": "0xe63a0cbacd23b0a429ce2201a0527c0a9231ea181684c4589ec2bd11aa64732b",
  "args": [
    "0x5AAbB2f1621C526Ea28e3d05950b6499D85501b9"
  ],
  "numDeployments": 1,
  "solcInputHash": "d23c4d8cc2724a89050d560661f87900",
  "bytecode": "0x608060405234801561001057600080fd5b50604051610c99380380610c99833981810160405281019061003291906100dc565b80600260006101000a81548173ffffffffffffffffffffffffffffffffffffffff021916908373ffffffffffffffffffffffffffffffffffffffff16021790555050610109565b600080fd5b600073ffffffffffffffffffffffffffffffffffffffff82169050919050565b60006100a98261007e565b9050919050565b6100b98161009e565b81146100c457600080fd5b50565b6000815190506100d6816100b0565b92915050565b6000602082840312156100f2576100f1610079565b5b6000610100848285016100c7565b91505092915050565b610b81806101186000396000f3fe608060405234801561001057600080fd5b50600436106100575760003560e01c8063028414f21461005c57806327d3553f14610078578063493ec707146100a957806368744046146100c5578063832880e7146100f6575b600080fd5b61007660048036038101906100719190610637565b610114565b005b610092600480360381019061008d9190610720565b61016f565b6040516100a09291906107df565b60405180910390f35b6100c360048036038101906100be9190610637565b6102b0565b005b6100df60048036038101906100da9190610816565b610349565b6040516100ed9291906107df565b60405180910390f35b6100fe61047d565b60405161010b9190610852565b60405180910390f35b60405180604001604052808381526020018281525060008085815260200190815260200160002060008201518160000190816101509190610a79565b5060208201518160010190816101669190610a79565b50905050505050565b60016020528160005260406000206020528060005260406000206000915091505080600001805461019f9061089c565b80601f01602080910402602001604051908101604052809291908181526020018280546101cb9061089c565b80156102185780601f106101ed57610100808354040283529160200191610218565b820191906000526020600020905b8154815290600101906020018083116101fb57829003601f168201915b50505050509080600101805461022d9061089c565b80601f01602080910402602001604051908101604052809291908181526020018280546102599061089c565b80156102a65780601f1061027b576101008083540402835291602001916102a6565b820191906000526020600020905b81548152906001019060200180831161028957829003601f168201915b5050505050905082565b604051806040016040528083815260200182815250600160003373ffffffffffffffffffffffffffffffffffffffff1673ffffffffffffffffffffffffffffffffffffffff1681526020019081526020016000206000858152602001908152602001600020600082015181600001908161032a9190610a79565b5060208201518160010190816103409190610a79565b50905050505050565b600060205280600052604060002060009150905080600001805461036c9061089c565b80601f01602080910402602001604051908101604052809291908181526020018280546103989061089c565b80156103e55780601f106103ba576101008083540402835291602001916103e5565b820191906000526020600020905b8154815290600101906020018083116103c857829003601f168201915b5050505050908060010180546103fa9061089c565b80601f01602080910402602001604051908101604052809291908181526020018280546104269061089c565b80156104735780601f1061044857610100808354040283529160200191610473565b820191906000526020600020905b81548152906001019060200180831161045657829003601f168201915b5050505050905082565b6000600260009054906101000a900473ffffffffffffffffffffffffffffffffffffffff16905090565b6000604051905090565b600080fd5b600080fd5b6000819050919050565b6104ce816104bb565b81146104d957600080fd5b50565b6000813590506104eb816104c5565b92915050565b600080fd5b600080fd5b6000601f19601f8301169050919050565b7f4e487b7100000000000000000000000000000000000000000000000000000000600052604160045260246000fd5b610544826104fb565b810181811067ffffffffffffffff821117156105635761056261050c565b5b80604052505050565b60006105766104a7565b9050610582828261053b565b919050565b600067ffffffffffffffff8211156105a2576105a161050c565b5b6105ab826104fb565b9050602081019050919050565b82818337600083830152505050565b60006105da6105d584610587565b61056c565b9050828152602081018484840111156105f6576105f56104f6565b5b6106018482856105b8565b509392505050565b600082601f83011261061e5761061d6104f1565b5b813561062e8482602086016105c7565b91505092915050565b6000806000606084860312156106505761064f6104b1565b5b600061065e868287016104dc565b935050602084013567ffffffffffffffff81111561067f5761067e6104b6565b5b61068b86828701610609565b925050604084013567ffffffffffffffff8111156106ac576106ab6104b6565b5b6106b886828701610609565b9150509250925092565b600073ffffffffffffffffffffffffffffffffffffffff82169050919050565b60006106ed826106c2565b9050919050565b6106fd816106e2565b811461070857600080fd5b50565b60008135905061071a816106f4565b92915050565b60008060408385031215610737576107366104b1565b5b60006107458582860161070b565b9250506020610756858286016104dc565b9150509250929050565b600081519050919050565b600082825260208201905092915050565b60005b8381101561079a57808201518184015260208101905061077f565b60008484015250505050565b60006107b182610760565b6107bb818561076b565b93506107cb81856020860161077c565b6107d4816104fb565b840191505092915050565b600060408201905081810360008301526107f981856107a6565b9050818103602083015261080d81846107a6565b90509392505050565b60006020828403121561082c5761082b6104b1565b5b600061083a848285016104dc565b91505092915050565b61084c816106e2565b82525050565b60006020820190506108676000830184610843565b92915050565b7f4e487b7100000000000000000000000000000000000000000000000000000000600052602260045260246000fd5b600060028204905060018216806108b457607f821691505b6020821081036108c7576108c661086d565b5b50919050565b60008190508160005260206000209050919050565b60006020601f8301049050919050565b600082821b905092915050565b60006008830261092f7fffffffffffffffffffffffffffffffffffffffffffffffffffffffffffffffff826108f2565b61093986836108f2565b95508019841693508086168417925050509392505050565b6000819050919050565b600061097661097161096c846104bb565b610951565b6104bb565b9050919050565b6000819050919050565b6109908361095b565b6109a461099c8261097d565b8484546108ff565b825550505050565b600090565b6109b96109ac565b6109c4818484610987565b505050565b5b818110156109e8576109dd6000826109b1565b6001810190506109ca565b5050565b601f821115610a2d576109fe816108cd565b610a07846108e2565b81016020851015610a16578190505b610a2a610a22856108e2565b8301826109c9565b50505b505050565b600082821c905092915050565b6000610a5060001984600802610a32565b1980831691505092915050565b6000610a698383610a3f565b9150826002028217905092915050565b610a8282610760565b67ffffffffffffffff811115610a9b57610a9a61050c565b5b610aa5825461089c565b610ab08282856109ec565b600060209050601f831160018114610ae35760008415610ad1578287015190505b610adb8582610a5d565b865550610b43565b601f198416610af1866108cd565b60005b82811015610b1957848901518255600182019150602085019450602081019050610af4565b86831015610b365784890151610b32601f891682610a3f565b8355505b6001600288020188555050505b50505050505056fea264697066735822122041f738545cf01d21942ad4623c19a236c010d3728d08283ffad61dd90af3ee4464736f6c63430008110033",
  "devdoc": {
    "kind": "dev",
    "methods": {},
    "version": 1
  },
  "userdoc": {
    "kind": "user",
    "methods": {},
    "version": 1
  },
  "storageLayout": {
    "storage": [
      {
        "astId": 6,
        "contract": "contracts/MyMappings.sol:MyMappings",
        "label": "books",
        "offset": 0,
        "slot": "0",
        "type": "t_mapping(t_uint256,t_struct(Book)20_storage)"
      },
      {
        "astId": 13,
        "contract": "contracts/MyMappings.sol:MyMappings",
        "label": "myBooks",
        "offset": 0,
        "slot": "1",
        "type": "t_mapping(t_address,t_mapping(t_uint256,t_struct(Book)20_storage))"
      },
      {
        "astId": 15,
        "contract": "contracts/MyMappings.sol:MyMappings",
        "label": "user",
        "offset": 0,
        "slot": "2",
        "type": "t_address"
      }
    ],
    "types": {
      "t_address": {
        "encoding": "inplace",
        "label": "address",
        "numberOfBytes": "20"
      },
      "t_mapping(t_address,t_mapping(t_uint256,t_struct(Book)20_storage))": {
        "encoding": "mapping",
        "key": "t_address",
        "label": "mapping(address => mapping(uint256 => struct MyMappings.Book))",
        "numberOfBytes": "32",
        "value": "t_mapping(t_uint256,t_struct(Book)20_storage)"
      },
      "t_mapping(t_uint256,t_struct(Book)20_storage)": {
        "encoding": "mapping",
        "key": "t_uint256",
        "label": "mapping(uint256 => struct MyMappings.Book)",
        "numberOfBytes": "32",
        "value": "t_struct(Book)20_storage"
      },
      "t_string_storage": {
        "encoding": "bytes",
        "label": "string",
        "numberOfBytes": "32"
      },
      "t_struct(Book)20_storage": {
        "encoding": "inplace",
        "label": "struct MyMappings.Book",
        "members": [
          {
            "astId": 17,
            "contract": "contracts/MyMappings.sol:MyMappings",
            "label": "title",
            "offset": 0,
            "slot": "0",
            "type": "t_string_storage"
          },
          {
            "astId": 19,
            "contract": "contracts/MyMappings.sol:MyMappings",
            "label": "author",
            "offset": 0,
            "slot": "1",
            "type": "t_string_storage"
          }
        ],
        "numberOfBytes": "64"
      },
      "t_uint256": {
        "encoding": "inplace",
        "label": "uint256",
        "numberOfBytes": "32"
      }
    }
  }
}